{
  "_format": "hh-sol-artifact-1",
  "contractName": "CarbonCreditToken",
  "sourceName": "contracts/CarbonCreditToken.sol",
  "abi": [
    {
      "inputs": [],
      "stateMutability": "nonpayable",
      "type": "constructor"
    },
    {
      "inputs": [
        {
          "internalType": "address",
          "name": "sender",
          "type": "address"
        },
        {
          "internalType": "uint256",
          "name": "tokenId",
          "type": "uint256"
        },
        {
          "internalType": "address",
          "name": "owner",
          "type": "address"
        }
      ],
      "name": "ERC721IncorrectOwner",
      "type": "error"
    },
    {
      "inputs": [
        {
          "internalType": "address",
          "name": "operator",
          "type": "address"
        },
        {
          "internalType": "uint256",
          "name": "tokenId",
          "type": "uint256"
        }
      ],
      "name": "ERC721InsufficientApproval",
      "type": "error"
    },
    {
      "inputs": [
        {
          "internalType": "address",
          "name": "approver",
          "type": "address"
        }
      ],
      "name": "ERC721InvalidApprover",
      "type": "error"
    },
    {
      "inputs": [
        {
          "internalType": "address",
          "name": "operator",
          "type": "address"
        }
      ],
      "name": "ERC721InvalidOperator",
      "type": "error"
    },
    {
      "inputs": [
        {
          "internalType": "address",
          "name": "owner",
          "type": "address"
        }
      ],
      "name": "ERC721InvalidOwner",
      "type": "error"
    },
    {
      "inputs": [
        {
          "internalType": "address",
          "name": "receiver",
          "type": "address"
        }
      ],
      "name": "ERC721InvalidReceiver",
      "type": "error"
    },
    {
      "inputs": [
        {
          "internalType": "address",
          "name": "sender",
          "type": "address"
        }
      ],
      "name": "ERC721InvalidSender",
      "type": "error"
    },
    {
      "inputs": [
        {
          "internalType": "uint256",
          "name": "tokenId",
          "type": "uint256"
        }
      ],
      "name": "ERC721NonexistentToken",
      "type": "error"
    },
    {
      "inputs": [
        {
          "internalType": "address",
          "name": "owner",
          "type": "address"
        }
      ],
      "name": "OwnableInvalidOwner",
      "type": "error"
    },
    {
      "inputs": [
        {
          "internalType": "address",
          "name": "account",
          "type": "address"
        }
      ],
      "name": "OwnableUnauthorizedAccount",
      "type": "error"
    },
    {
      "anonymous": false,
      "inputs": [
        {
          "indexed": true,
          "internalType": "address",
          "name": "owner",
          "type": "address"
        },
        {
          "indexed": true,
          "internalType": "address",
          "name": "approved",
          "type": "address"
        },
        {
          "indexed": true,
          "internalType": "uint256",
          "name": "tokenId",
          "type": "uint256"
        }
      ],
      "name": "Approval",
      "type": "event"
    },
    {
      "anonymous": false,
      "inputs": [
        {
          "indexed": true,
          "internalType": "address",
          "name": "owner",
          "type": "address"
        },
        {
          "indexed": true,
          "internalType": "address",
          "name": "operator",
          "type": "address"
        },
        {
          "indexed": false,
          "internalType": "bool",
          "name": "approved",
          "type": "bool"
        }
      ],
      "name": "ApprovalForAll",
      "type": "event"
    },
    {
      "anonymous": false,
      "inputs": [
        {
          "indexed": false,
          "internalType": "uint256",
          "name": "_fromTokenId",
          "type": "uint256"
        },
        {
          "indexed": false,
          "internalType": "uint256",
          "name": "_toTokenId",
          "type": "uint256"
        }
      ],
      "name": "BatchMetadataUpdate",
      "type": "event"
    },
    {
      "anonymous": false,
      "inputs": [
        {
          "indexed": false,
          "internalType": "uint256",
          "name": "tokenId",
          "type": "uint256"
        },
        {
          "indexed": false,
          "internalType": "address",
          "name": "buyer",
          "type": "address"
        },
        {
          "indexed": false,
          "internalType": "uint256",
          "name": "tons",
          "type": "uint256"
        },
        {
          "indexed": false,
          "internalType": "uint256",
          "name": "price",
          "type": "uint256"
        }
      ],
      "name": "FractionBought",
      "type": "event"
    },
    {
      "anonymous": false,
      "inputs": [
        {
          "indexed": false,
          "internalType": "uint256",
          "name": "_tokenId",
          "type": "uint256"
        }
      ],
      "name": "MetadataUpdate",
      "type": "event"
    },
    {
      "anonymous": false,
      "inputs": [
        {
          "indexed": true,
          "internalType": "address",
          "name": "previousOwner",
          "type": "address"
        },
        {
          "indexed": true,
          "internalType": "address",
          "name": "newOwner",
          "type": "address"
        }
      ],
      "name": "OwnershipTransferred",
      "type": "event"
    },
    {
      "anonymous": false,
      "inputs": [
        {
          "indexed": false,
          "internalType": "uint256",
          "name": "tokenId",
          "type": "uint256"
        },
        {
          "indexed": false,
          "internalType": "uint256",
          "name": "timestamp",
          "type": "uint256"
        }
      ],
      "name": "TokenBurned",
      "type": "event"
    },
    {
      "anonymous": false,
      "inputs": [
        {
          "indexed": false,
          "internalType": "uint256",
          "name": "tokenId",
          "type": "uint256"
        },
        {
          "indexed": false,
          "internalType": "address",
          "name": "issuer",
          "type": "address"
        }
      ],
      "name": "TokenMinted",
      "type": "event"
    },
    {
      "anonymous": false,
      "inputs": [
        {
          "indexed": false,
          "internalType": "uint256",
          "name": "tokenId",
          "type": "uint256"
        },
        {
          "indexed": false,
          "internalType": "address",
          "name": "owner",
          "type": "address"
        },
        {
          "indexed": false,
          "internalType": "uint256",
          "name": "timestamp",
          "type": "uint256"
        }
      ],
      "name": "TokenRetired",
      "type": "event"
    },
    {
      "anonymous": false,
      "inputs": [
        {
          "indexed": true,
          "internalType": "address",
          "name": "from",
          "type": "address"
        },
        {
          "indexed": true,
          "internalType": "address",
          "name": "to",
          "type": "address"
        },
        {
          "indexed": true,
          "internalType": "uint256",
          "name": "tokenId",
          "type": "uint256"
        }
      ],
      "name": "Transfer",
      "type": "event"
    },
    {
      "inputs": [
        {
          "internalType": "address",
          "name": "to",
          "type": "address"
        },
        {
          "internalType": "uint256",
          "name": "tokenId",
          "type": "uint256"
        }
      ],
      "name": "approve",
      "outputs": [],
      "stateMutability": "nonpayable",
      "type": "function"
    },
    {
      "inputs": [
        {
          "internalType": "address",
          "name": "owner",
          "type": "address"
        }
      ],
      "name": "balanceOf",
      "outputs": [
        {
          "internalType": "uint256",
          "name": "",
          "type": "uint256"
        }
      ],
      "stateMutability": "view",
      "type": "function"
    },
    {
      "inputs": [
        {
          "internalType": "uint256",
          "name": "tokenId",
          "type": "uint256"
        }
      ],
      "name": "burnCredit",
      "outputs": [],
      "stateMutability": "nonpayable",
      "type": "function"
    },
    {
      "inputs": [
        {
          "internalType": "uint256",
          "name": "tokenId",
          "type": "uint256"
        },
        {
          "internalType": "uint256",
          "name": "tons",
          "type": "uint256"
        }
      ],
      "name": "buyFractions",
      "outputs": [],
      "stateMutability": "payable",
      "type": "function"
    },
    {
      "inputs": [
        {
          "internalType": "uint256",
          "name": "",
          "type": "uint256"
        }
      ],
      "name": "credits",
      "outputs": [
        {
          "internalType": "uint256",
          "name": "totalTons",
          "type": "uint256"
        },
        {
          "internalType": "uint256",
          "name": "availableTons",
          "type": "uint256"
        },
        {
          "internalType": "uint256",
          "name": "pricePerTon",
          "type": "uint256"
        },
        {
          "internalType": "uint256",
          "name": "expiryDate",
          "type": "uint256"
        },
        {
          "internalType": "string",
          "name": "region",
          "type": "string"
        },
        {
          "internalType": "address",
          "name": "issuer",
          "type": "address"
        },
        {
          "internalType": "bool",
          "name": "retired",
          "type": "bool"
        },
        {
          "internalType": "bool",
          "name": "burned",
          "type": "bool"
        }
      ],
      "stateMutability": "view",
      "type": "function"
    },
    {
      "inputs": [
        {
          "internalType": "uint256",
          "name": "",
          "type": "uint256"
        },
        {
          "internalType": "address",
          "name": "",
          "type": "address"
        }
      ],
      "name": "fractionalOwnedTons",
      "outputs": [
        {
          "internalType": "uint256",
          "name": "",
          "type": "uint256"
        }
      ],
      "stateMutability": "view",
      "type": "function"
    },
    {
      "inputs": [
        {
          "internalType": "uint256",
          "name": "tokenId",
          "type": "uint256"
        }
      ],
      "name": "getApproved",
      "outputs": [
        {
          "internalType": "address",
          "name": "",
          "type": "address"
        }
      ],
      "stateMutability": "view",
      "type": "function"
    },
    {
      "inputs": [
        {
          "internalType": "uint256",
          "name": "tokenId",
          "type": "uint256"
        }
      ],
      "name": "getCredit",
      "outputs": [
        {
          "components": [
            {
              "internalType": "uint256",
              "name": "totalTons",
              "type": "uint256"
            },
            {
              "internalType": "uint256",
              "name": "availableTons",
              "type": "uint256"
            },
            {
              "internalType": "uint256",
              "name": "pricePerTon",
              "type": "uint256"
            },
            {
              "internalType": "uint256",
              "name": "expiryDate",
              "type": "uint256"
            },
            {
              "internalType": "string",
              "name": "region",
              "type": "string"
            },
            {
              "internalType": "address",
              "name": "issuer",
              "type": "address"
            },
            {
              "internalType": "bool",
              "name": "retired",
              "type": "bool"
            },
            {
              "internalType": "bool",
              "name": "burned",
              "type": "bool"
            }
          ],
          "internalType": "struct CarbonCreditToken.CarbonCredit",
          "name": "",
          "type": "tuple"
        }
      ],
      "stateMutability": "view",
      "type": "function"
    },
    {
      "inputs": [
        {
          "internalType": "address",
          "name": "owner",
          "type": "address"
        },
        {
          "internalType": "address",
          "name": "operator",
          "type": "address"
        }
      ],
      "name": "isApprovedForAll",
      "outputs": [
        {
          "internalType": "bool",
          "name": "",
          "type": "bool"
        }
      ],
      "stateMutability": "view",
      "type": "function"
    },
    {
      "inputs": [
        {
          "internalType": "uint256",
          "name": "totalTons",
          "type": "uint256"
        },
        {
          "internalType": "uint256",
          "name": "pricePerTon",
          "type": "uint256"
        },
        {
          "internalType": "uint256",
          "name": "expiryDate",
          "type": "uint256"
        },
        {
          "internalType": "string",
          "name": "region",
          "type": "string"
        },
        {
          "internalType": "string",
          "name": "tokenURI",
          "type": "string"
        }
      ],
      "name": "mintCredit",
      "outputs": [],
      "stateMutability": "nonpayable",
      "type": "function"
    },
    {
      "inputs": [],
      "name": "name",
      "outputs": [
        {
          "internalType": "string",
          "name": "",
          "type": "string"
        }
      ],
      "stateMutability": "view",
      "type": "function"
    },
    {
      "inputs": [
        {
          "internalType": "uint256",
          "name": "tokenId",
          "type": "uint256"
        },
        {
          "internalType": "address",
          "name": "user",
          "type": "address"
        }
      ],
      "name": "ownedTons",
      "outputs": [
        {
          "internalType": "uint256",
          "name": "",
          "type": "uint256"
        }
      ],
      "stateMutability": "view",
      "type": "function"
    },
    {
      "inputs": [],
      "name": "owner",
      "outputs": [
        {
          "internalType": "address",
          "name": "",
          "type": "address"
        }
      ],
      "stateMutability": "view",
      "type": "function"
    },
    {
      "inputs": [
        {
          "internalType": "uint256",
          "name": "tokenId",
          "type": "uint256"
        }
      ],
      "name": "ownerOf",
      "outputs": [
        {
          "internalType": "address",
          "name": "",
          "type": "address"
        }
      ],
      "stateMutability": "view",
      "type": "function"
    },
    {
      "inputs": [],
      "name": "renounceOwnership",
      "outputs": [],
      "stateMutability": "nonpayable",
      "type": "function"
    },
    {
      "inputs": [
        {
          "internalType": "uint256",
          "name": "tokenId",
          "type": "uint256"
        }
      ],
      "name": "retireCredit",
      "outputs": [],
      "stateMutability": "nonpayable",
      "type": "function"
    },
    {
      "inputs": [
        {
          "internalType": "address",
          "name": "from",
          "type": "address"
        },
        {
          "internalType": "address",
          "name": "to",
          "type": "address"
        },
        {
          "internalType": "uint256",
          "name": "tokenId",
          "type": "uint256"
        }
      ],
      "name": "safeTransferFrom",
      "outputs": [],
      "stateMutability": "nonpayable",
      "type": "function"
    },
    {
      "inputs": [
        {
          "internalType": "address",
          "name": "from",
          "type": "address"
        },
        {
          "internalType": "address",
          "name": "to",
          "type": "address"
        },
        {
          "internalType": "uint256",
          "name": "tokenId",
          "type": "uint256"
        },
        {
          "internalType": "bytes",
          "name": "data",
          "type": "bytes"
        }
      ],
      "name": "safeTransferFrom",
      "outputs": [],
      "stateMutability": "nonpayable",
      "type": "function"
    },
    {
      "inputs": [
        {
          "internalType": "address",
          "name": "operator",
          "type": "address"
        },
        {
          "internalType": "bool",
          "name": "approved",
          "type": "bool"
        }
      ],
      "name": "setApprovalForAll",
      "outputs": [],
      "stateMutability": "nonpayable",
      "type": "function"
    },
    {
      "inputs": [
        {
          "internalType": "bytes4",
          "name": "interfaceId",
          "type": "bytes4"
        }
      ],
      "name": "supportsInterface",
      "outputs": [
        {
          "internalType": "bool",
          "name": "",
          "type": "bool"
        }
      ],
      "stateMutability": "view",
      "type": "function"
    },
    {
      "inputs": [],
      "name": "symbol",
      "outputs": [
        {
          "internalType": "string",
          "name": "",
          "type": "string"
        }
      ],
      "stateMutability": "view",
      "type": "function"
    },
    {
      "inputs": [],
      "name": "tokenCounter",
      "outputs": [
        {
          "internalType": "uint256",
          "name": "",
          "type": "uint256"
        }
      ],
      "stateMutability": "view",
      "type": "function"
    },
    {
      "inputs": [
        {
          "internalType": "uint256",
          "name": "tokenId",
          "type": "uint256"
        }
      ],
      "name": "tokenURI",
      "outputs": [
        {
          "internalType": "string",
          "name": "",
          "type": "string"
        }
      ],
      "stateMutability": "view",
      "type": "function"
    },
    {
      "inputs": [
        {
          "internalType": "address",
          "name": "from",
          "type": "address"
        },
        {
          "internalType": "address",
          "name": "to",
          "type": "address"
        },
        {
          "internalType": "uint256",
          "name": "tokenId",
          "type": "uint256"
        }
      ],
      "name": "transferFrom",
      "outputs": [],
      "stateMutability": "nonpayable",
      "type": "function"
    },
    {
      "inputs": [
        {
          "internalType": "address",
          "name": "newOwner",
          "type": "address"
        }
      ],
      "name": "transferOwnership",
      "outputs": [],
      "stateMutability": "nonpayable",
      "type": "function"
    }
  ],
  "bytecode": "0x608060405260016008553480156200001657600080fd5b50336040518060400160405280600c81526020017f436172626f6e43726564697400000000000000000000000000000000000000008152506040518060400160405280600381526020017f4343540000000000000000000000000000000000000000000000000000000000815250816000908162000095919062000477565b508060019081620000a7919062000477565b505050600073ffffffffffffffffffffffffffffffffffffffff168173ffffffffffffffffffffffffffffffffffffffff16036200011f5760006040517f1e4fbdf7000000000000000000000000000000000000000000000000000000008152600401620001169190620005a3565b60405180910390fd5b62000130816200013760201b60201c565b50620005c0565b6000600760009054906101000a900473ffffffffffffffffffffffffffffffffffffffff16905081600760006101000a81548173ffffffffffffffffffffffffffffffffffffffff021916908373ffffffffffffffffffffffffffffffffffffffff1602179055508173ffffffffffffffffffffffffffffffffffffffff168173ffffffffffffffffffffffffffffffffffffffff167f8be0079c531659141344cd1fd0a4f28419497f9722a3daafe3b4186f6b6457e060405160405180910390a35050565b600081519050919050565b7f4e487b7100000000000000000000000000000000000000000000000000000000600052604160045260246000fd5b7f4e487b7100000000000000000000000000000000000000000000000000000000600052602260045260246000fd5b600060028204905060018216806200027f57607f821691505b60208210810362000295576200029462000237565b5b50919050565b60008190508160005260206000209050919050565b60006020601f8301049050919050565b600082821b905092915050565b600060088302620002ff7fffffffffffffffffffffffffffffffffffffffffffffffffffffffffffffffff82620002c0565b6200030b8683620002c0565b95508019841693508086168417925050509392505050565b6000819050919050565b6000819050919050565b600062000358620003526200034c8462000323565b6200032d565b62000323565b9050919050565b6000819050919050565b620003748362000337565b6200038c62000383826200035f565b848454620002cd565b825550505050565b600090565b620003a362000394565b620003b081848462000369565b505050565b5b81811015620003d857620003cc60008262000399565b600181019050620003b6565b5050565b601f8211156200042757620003f1816200029b565b620003fc84620002b0565b810160208510156200040c578190505b620004246200041b85620002b0565b830182620003b5565b50505b505050565b600082821c905092915050565b60006200044c600019846008026200042c565b1980831691505092915050565b600062000467838362000439565b9150826002028217905092915050565b6200048282620001fd565b67ffffffffffffffff8111156200049e576200049d62000208565b5b620004aa825462000266565b620004b7828285620003dc565b600060209050601f831160018114620004ef5760008415620004da578287015190505b620004e6858262000459565b86555062000556565b601f198416620004ff866200029b565b60005b82811015620005295784890151825560018201915060208501945060208101905062000502565b8683101562000549578489015162000545601f89168262000439565b8355505b6001600288020188555050505b505050505050565b600073ffffffffffffffffffffffffffffffffffffffff82169050919050565b60006200058b826200055e565b9050919050565b6200059d816200057e565b82525050565b6000602082019050620005ba600083018462000592565b92915050565b613aea80620005d06000396000f3fe6080604052600436106101665760003560e01c806395d89b41116100d1578063c87b56dd1161008a578063e985e9c511610064578063e985e9c514610579578063ea370276146105b6578063eb899eeb146105d2578063f2fde38b146105fb57610166565b8063c87b56dd146104d4578063d082e38114610511578063da304e4d1461053c57610166565b806395d89b41146103b45780639cae0b9e146103df578063a22cb4651461041c578063a8d070d714610445578063b88d4fde14610482578063bd058b26146104ab57610166565b806342842e0e1161012357806342842e0e146102a65780636352211e146102cf57806370a082311461030c578063715018a6146103495780638400f894146103605780638da5cb5b1461038957610166565b806301ffc9a71461016b578063036a1c22146101a857806306fdde03146101ec578063081812fc14610217578063095ea7b31461025457806323b872dd1461027d575b600080fd5b34801561017757600080fd5b50610192600480360381019061018d91906127c5565b610624565b60405161019f919061280d565b60405180910390f35b3480156101b457600080fd5b506101cf60048036038101906101ca919061285e565b610685565b6040516101e398979695949392919061296b565b60405180910390f35b3480156101f857600080fd5b5061020161078f565b60405161020e91906129f0565b60405180910390f35b34801561022357600080fd5b5061023e6004803603810190610239919061285e565b610821565b60405161024b9190612a12565b60405180910390f35b34801561026057600080fd5b5061027b60048036038101906102769190612a59565b61083d565b005b34801561028957600080fd5b506102a4600480360381019061029f9190612a99565b610853565b005b3480156102b257600080fd5b506102cd60048036038101906102c89190612a99565b610955565b005b3480156102db57600080fd5b506102f660048036038101906102f1919061285e565b610975565b6040516103039190612a12565b60405180910390f35b34801561031857600080fd5b50610333600480360381019061032e9190612aec565b610987565b6040516103409190612b19565b60405180910390f35b34801561035557600080fd5b5061035e610a41565b005b34801561036c57600080fd5b506103876004803603810190610382919061285e565b610a55565b005b34801561039557600080fd5b5061039e610b81565b6040516103ab9190612a12565b60405180910390f35b3480156103c057600080fd5b506103c9610bab565b6040516103d691906129f0565b60405180910390f35b3480156103eb57600080fd5b5061040660048036038101906104019190612b34565b610c3d565b6040516104139190612b19565b60405180910390f35b34801561042857600080fd5b50610443600480360381019061043e9190612ba0565b610c98565b005b34801561045157600080fd5b5061046c60048036038101906104679190612b34565b610cae565b6040516104799190612b19565b60405180910390f35b34801561048e57600080fd5b506104a960048036038101906104a49190612d15565b610cd3565b005b3480156104b757600080fd5b506104d260048036038101906104cd9190612e39565b610cf8565b005b3480156104e057600080fd5b506104fb60048036038101906104f6919061285e565b610e9d565b60405161050891906129f0565b60405180910390f35b34801561051d57600080fd5b50610526610fb0565b6040516105339190612b19565b60405180910390f35b34801561054857600080fd5b50610563600480360381019061055e919061285e565b610fb6565b6040516105709190613013565b60405180910390f35b34801561058557600080fd5b506105a0600480360381019061059b9190613035565b61112a565b6040516105ad919061280d565b60405180910390f35b6105d060048036038101906105cb9190613075565b6111be565b005b3480156105de57600080fd5b506105f960048036038101906105f4919061285e565b6114d2565b005b34801561060757600080fd5b50610622600480360381019061061d9190612aec565b611645565b005b6000634906490660e01b7bffffffffffffffffffffffffffffffffffffffffffffffffffffffff1916827bffffffffffffffffffffffffffffffffffffffffffffffffffffffff1916148061067e575061067d826116cb565b5b9050919050565b60096020528060005260406000206000915090508060000154908060010154908060020154908060030154908060040180546106c0906130e4565b80601f01602080910402602001604051908101604052809291908181526020018280546106ec906130e4565b80156107395780601f1061070e57610100808354040283529160200191610739565b820191906000526020600020905b81548152906001019060200180831161071c57829003601f168201915b5050505050908060050160009054906101000a900473ffffffffffffffffffffffffffffffffffffffff16908060050160149054906101000a900460ff16908060050160159054906101000a900460ff16905088565b60606000805461079e906130e4565b80601f01602080910402602001604051908101604052809291908181526020018280546107ca906130e4565b80156108175780601f106107ec57610100808354040283529160200191610817565b820191906000526020600020905b8154815290600101906020018083116107fa57829003601f168201915b5050505050905090565b600061082c826117ad565b5061083682611835565b9050919050565b61084f828261084a611872565b61187a565b5050565b600073ffffffffffffffffffffffffffffffffffffffff168273ffffffffffffffffffffffffffffffffffffffff16036108c55760006040517f64a0ae920000000000000000000000000000000000000000000000000000000081526004016108bc9190612a12565b60405180910390fd5b60006108d983836108d4611872565b61188c565b90508373ffffffffffffffffffffffffffffffffffffffff168173ffffffffffffffffffffffffffffffffffffffff161461094f578382826040517f64283d7b00000000000000000000000000000000000000000000000000000000815260040161094693929190613115565b60405180910390fd5b50505050565b61097083838360405180602001604052806000815250610cd3565b505050565b6000610980826117ad565b9050919050565b60008073ffffffffffffffffffffffffffffffffffffffff168273ffffffffffffffffffffffffffffffffffffffff16036109fa5760006040517f89c62b640000000000000000000000000000000000000000000000000000000081526004016109f19190612a12565b60405180910390fd5b600360008373ffffffffffffffffffffffffffffffffffffffff1673ffffffffffffffffffffffffffffffffffffffff168152602001908152602001600020549050919050565b610a49611aa6565b610a536000611b2d565b565b610a5d611aa6565b60006009600083815260200190815260200160002090508060050160159054906101000a900460ff16158015610aa257508060050160149054906101000a900460ff16155b610ae1576040517f08c379a0000000000000000000000000000000000000000000000000000000008152600401610ad890613198565b60405180910390fd5b80600301544211610b27576040517f08c379a0000000000000000000000000000000000000000000000000000000008152600401610b1e90613204565b60405180910390fd5b60018160050160156101000a81548160ff0219169083151502179055507f43ce8febc9822756d8f34b35cd628db23dc57fe810cb077080d7c740fcc6988f8242604051610b75929190613224565b60405180910390a15050565b6000600760009054906101000a900473ffffffffffffffffffffffffffffffffffffffff16905090565b606060018054610bba906130e4565b80601f0160208091040260200160405190810160405280929190818152602001828054610be6906130e4565b8015610c335780601f10610c0857610100808354040283529160200191610c33565b820191906000526020600020905b815481529060010190602001808311610c1657829003601f168201915b5050505050905090565b6000600a600084815260200190815260200160002060008373ffffffffffffffffffffffffffffffffffffffff1673ffffffffffffffffffffffffffffffffffffffff16815260200190815260200160002054905092915050565b610caa610ca3611872565b8383611bf3565b5050565b600a602052816000526040600020602052806000526040600020600091509150505481565b610cde848484610853565b610cf2610ce9611872565b85858585611d62565b50505050565b6000600854905060086000815480929190610d129061327c565b91905055506040518061010001604052808781526020018781526020018681526020018581526020018481526020013373ffffffffffffffffffffffffffffffffffffffff1681526020016000151581526020016000151581525060096000838152602001908152602001600020600082015181600001556020820151816001015560408201518160020155606082015181600301556080820151816004019081610dbd9190613470565b5060a08201518160050160006101000a81548173ffffffffffffffffffffffffffffffffffffffff021916908373ffffffffffffffffffffffffffffffffffffffff16021790555060c08201518160050160146101000a81548160ff02191690831515021790555060e08201518160050160156101000a81548160ff021916908315150217905550905050610e523382611f13565b610e5c818361200c565b7f3a5398bda6f1f57d6c96834fa9bf02b5517bdc847d14312015a917ba421c31c98133604051610e8d929190613542565b60405180910390a1505050505050565b6060610ea8826117ad565b506000600660008481526020019081526020016000208054610ec9906130e4565b80601f0160208091040260200160405190810160405280929190818152602001828054610ef5906130e4565b8015610f425780601f10610f1757610100808354040283529160200191610f42565b820191906000526020600020905b815481529060010190602001808311610f2557829003601f168201915b505050505090506000610f53612068565b90506000815103610f68578192505050610fab565b600082511115610f9d578082604051602001610f859291906135a7565b60405160208183030381529060405292505050610fab565b610fa68461207f565b925050505b919050565b60085481565b610fbe6126fa565b600960008381526020019081526020016000206040518061010001604052908160008201548152602001600182015481526020016002820154815260200160038201548152602001600482018054611015906130e4565b80601f0160208091040260200160405190810160405280929190818152602001828054611041906130e4565b801561108e5780601f106110635761010080835404028352916020019161108e565b820191906000526020600020905b81548152906001019060200180831161107157829003601f168201915b505050505081526020016005820160009054906101000a900473ffffffffffffffffffffffffffffffffffffffff1673ffffffffffffffffffffffffffffffffffffffff1673ffffffffffffffffffffffffffffffffffffffff1681526020016005820160149054906101000a900460ff161515151581526020016005820160159054906101000a900460ff1615151515815250509050919050565b6000600560008473ffffffffffffffffffffffffffffffffffffffff1673ffffffffffffffffffffffffffffffffffffffff16815260200190815260200160002060008373ffffffffffffffffffffffffffffffffffffffff1673ffffffffffffffffffffffffffffffffffffffff16815260200190815260200160002060009054906101000a900460ff16905092915050565b600060096000848152602001908152602001600020905060006111e084610975565b9050600073ffffffffffffffffffffffffffffffffffffffff168173ffffffffffffffffffffffffffffffffffffffff1603611251576040517f08c379a000000000000000000000000000000000000000000000000000000000815260040161124890613617565b60405180910390fd5b8160050160149054906101000a900460ff1615801561127f57508160050160159054906101000a900460ff16155b6112be576040517f08c379a00000000000000000000000000000000000000000000000000000000081526004016112b590613683565b60405180910390fd5b81600301544210611304576040517f08c379a00000000000000000000000000000000000000000000000000000000081526004016112fb906136ef565b60405180910390fd5b828260010154101561134b576040517f08c379a00000000000000000000000000000000000000000000000000000000081526004016113429061375b565b60405180910390fd5b600083836002015461135d919061377b565b90508034146113a1576040517f08c379a000000000000000000000000000000000000000000000000000000000815260040161139890613809565b60405180910390fd5b8260050160009054906101000a900473ffffffffffffffffffffffffffffffffffffffff1673ffffffffffffffffffffffffffffffffffffffff166108fc349081150290604051600060405180830381858888f1935050505015801561140b573d6000803e3d6000fd5b50838360010160008282546114209190613829565b9250508190555083600a600087815260200190815260200160002060003373ffffffffffffffffffffffffffffffffffffffff1673ffffffffffffffffffffffffffffffffffffffff1681526020019081526020016000206000828254611487919061385d565b925050819055507f80c4f3b1904f05c8c1907de32bb02dd69685a584a2e41a75414ace634b4292f7853386846040516114c39493929190613891565b60405180910390a15050505050565b6000600a600083815260200190815260200160002060003373ffffffffffffffffffffffffffffffffffffffff1673ffffffffffffffffffffffffffffffffffffffff1681526020019081526020016000205411611565576040517f08c379a000000000000000000000000000000000000000000000000000000000815260040161155c90613922565b60405180910390fd5b60006009600083815260200190815260200160002090508060050160149054906101000a900460ff161580156115aa57508060050160159054906101000a900460ff16155b6115e9576040517f08c379a00000000000000000000000000000000000000000000000000000000081526004016115e090613198565b60405180910390fd5b60018160050160146101000a81548160ff0219169083151502179055507f0c56848ff2cd406a9f1ba1f90e9a116406123e8413694361ed996137f42ebef782334260405161163993929190613942565b60405180910390a15050565b61164d611aa6565b600073ffffffffffffffffffffffffffffffffffffffff168173ffffffffffffffffffffffffffffffffffffffff16036116bf5760006040517f1e4fbdf70000000000000000000000000000000000000000000000000000000081526004016116b69190612a12565b60405180910390fd5b6116c881611b2d565b50565b60007f80ac58cd000000000000000000000000000000000000000000000000000000007bffffffffffffffffffffffffffffffffffffffffffffffffffffffff1916827bffffffffffffffffffffffffffffffffffffffffffffffffffffffff1916148061179657507f5b5e139f000000000000000000000000000000000000000000000000000000007bffffffffffffffffffffffffffffffffffffffffffffffffffffffff1916827bffffffffffffffffffffffffffffffffffffffffffffffffffffffff1916145b806117a657506117a5826120e8565b5b9050919050565b6000806117b983612152565b9050600073ffffffffffffffffffffffffffffffffffffffff168173ffffffffffffffffffffffffffffffffffffffff160361182c57826040517f7e2732890000000000000000000000000000000000000000000000000000000081526004016118239190612b19565b60405180910390fd5b80915050919050565b60006004600083815260200190815260200160002060009054906101000a900473ffffffffffffffffffffffffffffffffffffffff169050919050565b600033905090565b611887838383600161218f565b505050565b60008061189884612152565b9050600073ffffffffffffffffffffffffffffffffffffffff168373ffffffffffffffffffffffffffffffffffffffff16146118da576118d9818486612354565b5b600073ffffffffffffffffffffffffffffffffffffffff168173ffffffffffffffffffffffffffffffffffffffff161461196b5761191c60008560008061218f565b6001600360008373ffffffffffffffffffffffffffffffffffffffff1673ffffffffffffffffffffffffffffffffffffffff168152602001908152602001600020600082825403925050819055505b600073ffffffffffffffffffffffffffffffffffffffff168573ffffffffffffffffffffffffffffffffffffffff16146119ee576001600360008773ffffffffffffffffffffffffffffffffffffffff1673ffffffffffffffffffffffffffffffffffffffff168152602001908152602001600020600082825401925050819055505b846002600086815260200190815260200160002060006101000a81548173ffffffffffffffffffffffffffffffffffffffff021916908373ffffffffffffffffffffffffffffffffffffffff160217905550838573ffffffffffffffffffffffffffffffffffffffff168273ffffffffffffffffffffffffffffffffffffffff167fddf252ad1be2c89b69c2b068fc378daa952ba7f163c4a11628f55a4df523b3ef60405160405180910390a4809150509392505050565b611aae611872565b73ffffffffffffffffffffffffffffffffffffffff16611acc610b81565b73ffffffffffffffffffffffffffffffffffffffff1614611b2b57611aef611872565b6040517f118cdaa7000000000000000000000000000000000000000000000000000000008152600401611b229190612a12565b60405180910390fd5b565b6000600760009054906101000a900473ffffffffffffffffffffffffffffffffffffffff16905081600760006101000a81548173ffffffffffffffffffffffffffffffffffffffff021916908373ffffffffffffffffffffffffffffffffffffffff1602179055508173ffffffffffffffffffffffffffffffffffffffff168173ffffffffffffffffffffffffffffffffffffffff167f8be0079c531659141344cd1fd0a4f28419497f9722a3daafe3b4186f6b6457e060405160405180910390a35050565b600073ffffffffffffffffffffffffffffffffffffffff168273ffffffffffffffffffffffffffffffffffffffff1603611c6457816040517f5b08ba18000000000000000000000000000000000000000000000000000000008152600401611c5b9190612a12565b60405180910390fd5b80600560008573ffffffffffffffffffffffffffffffffffffffff1673ffffffffffffffffffffffffffffffffffffffff16815260200190815260200160002060008473ffffffffffffffffffffffffffffffffffffffff1673ffffffffffffffffffffffffffffffffffffffff16815260200190815260200160002060006101000a81548160ff0219169083151502179055508173ffffffffffffffffffffffffffffffffffffffff168373ffffffffffffffffffffffffffffffffffffffff167f17307eab39ab6107e8899845ad3d59bd9653f200f220920489ca2b5937696c3183604051611d55919061280d565b60405180910390a3505050565b60008373ffffffffffffffffffffffffffffffffffffffff163b1115611f0c578273ffffffffffffffffffffffffffffffffffffffff1663150b7a02868685856040518563ffffffff1660e01b8152600401611dc194939291906139ce565b6020604051808303816000875af1925050508015611dfd57506040513d601f19601f82011682018060405250810190611dfa9190613a2f565b60015b611e81573d8060008114611e2d576040519150601f19603f3d011682016040523d82523d6000602084013e611e32565b606091505b506000815103611e7957836040517f64a0ae92000000000000000000000000000000000000000000000000000000008152600401611e709190612a12565b60405180910390fd5b805160208201fd5b63150b7a0260e01b7bffffffffffffffffffffffffffffffffffffffffffffffffffffffff1916817bffffffffffffffffffffffffffffffffffffffffffffffffffffffff191614611f0a57836040517f64a0ae92000000000000000000000000000000000000000000000000000000008152600401611f019190612a12565b60405180910390fd5b505b5050505050565b600073ffffffffffffffffffffffffffffffffffffffff168273ffffffffffffffffffffffffffffffffffffffff1603611f855760006040517f64a0ae92000000000000000000000000000000000000000000000000000000008152600401611f7c9190612a12565b60405180910390fd5b6000611f938383600061188c565b9050600073ffffffffffffffffffffffffffffffffffffffff168173ffffffffffffffffffffffffffffffffffffffff16146120075760006040517f73c6ac6e000000000000000000000000000000000000000000000000000000008152600401611ffe9190612a12565b60405180910390fd5b505050565b8060066000848152602001908152602001600020908161202c9190613470565b507ff8e1a15aba9398e019f0b49df1a4fde98ee17ae345cb5f6b5e2c27f5033e8ce78260405161205c9190612b19565b60405180910390a15050565b606060405180602001604052806000815250905090565b606061208a826117ad565b506000612095612068565b905060008151116120b557604051806020016040528060008152506120e0565b806120bf84612418565b6040516020016120d09291906135a7565b6040516020818303038152906040525b915050919050565b60007f01ffc9a7000000000000000000000000000000000000000000000000000000007bffffffffffffffffffffffffffffffffffffffffffffffffffffffff1916827bffffffffffffffffffffffffffffffffffffffffffffffffffffffff1916149050919050565b60006002600083815260200190815260200160002060009054906101000a900473ffffffffffffffffffffffffffffffffffffffff169050919050565b80806121c85750600073ffffffffffffffffffffffffffffffffffffffff168273ffffffffffffffffffffffffffffffffffffffff1614155b156122fc5760006121d8846117ad565b9050600073ffffffffffffffffffffffffffffffffffffffff168373ffffffffffffffffffffffffffffffffffffffff161415801561224357508273ffffffffffffffffffffffffffffffffffffffff168173ffffffffffffffffffffffffffffffffffffffff1614155b80156122565750612254818461112a565b155b1561229857826040517fa9fbf51f00000000000000000000000000000000000000000000000000000000815260040161228f9190612a12565b60405180910390fd5b81156122fa57838573ffffffffffffffffffffffffffffffffffffffff168273ffffffffffffffffffffffffffffffffffffffff167f8c5be1e5ebec7d5bd14f71427d1e84f3dd0314c0f7b2291e5b200ac8c7c3b92560405160405180910390a45b505b836004600085815260200190815260200160002060006101000a81548173ffffffffffffffffffffffffffffffffffffffff021916908373ffffffffffffffffffffffffffffffffffffffff16021790555050505050565b61235f8383836124e6565b61241357600073ffffffffffffffffffffffffffffffffffffffff168373ffffffffffffffffffffffffffffffffffffffff16036123d457806040517f7e2732890000000000000000000000000000000000000000000000000000000081526004016123cb9190612b19565b60405180910390fd5b81816040517f177e802f00000000000000000000000000000000000000000000000000000000815260040161240a929190613a5c565b60405180910390fd5b505050565b606060006001612427846125a7565b01905060008167ffffffffffffffff81111561244657612445612bea565b5b6040519080825280601f01601f1916602001820160405280156124785781602001600182028036833780820191505090505b509050600082602083010190505b6001156124db578080600190039150507f3031323334353637383961626364656600000000000000000000000000000000600a86061a8153600a85816124cf576124ce613a85565b5b04945060008503612486575b819350505050919050565b60008073ffffffffffffffffffffffffffffffffffffffff168373ffffffffffffffffffffffffffffffffffffffff161415801561259e57508273ffffffffffffffffffffffffffffffffffffffff168473ffffffffffffffffffffffffffffffffffffffff16148061255f575061255e848461112a565b5b8061259d57508273ffffffffffffffffffffffffffffffffffffffff1661258583611835565b73ffffffffffffffffffffffffffffffffffffffff16145b5b90509392505050565b600080600090507a184f03e93ff9f4daa797ed6e38ed64bf6a1f0100000000000000008310612605577a184f03e93ff9f4daa797ed6e38ed64bf6a1f01000000000000000083816125fb576125fa613a85565b5b0492506040810190505b6d04ee2d6d415b85acef81000000008310612642576d04ee2d6d415b85acef8100000000838161263857612637613a85565b5b0492506020810190505b662386f26fc10000831061267157662386f26fc10000838161266757612666613a85565b5b0492506010810190505b6305f5e100831061269a576305f5e10083816126905761268f613a85565b5b0492506008810190505b61271083106126bf5761271083816126b5576126b4613a85565b5b0492506004810190505b606483106126e257606483816126d8576126d7613a85565b5b0492506002810190505b600a83106126f1576001810190505b80915050919050565b6040518061010001604052806000815260200160008152602001600081526020016000815260200160608152602001600073ffffffffffffffffffffffffffffffffffffffff1681526020016000151581526020016000151581525090565b6000604051905090565b600080fd5b600080fd5b60007fffffffff0000000000000000000000000000000000000000000000000000000082169050919050565b6127a28161276d565b81146127ad57600080fd5b50565b6000813590506127bf81612799565b92915050565b6000602082840312156127db576127da612763565b5b60006127e9848285016127b0565b91505092915050565b60008115159050919050565b612807816127f2565b82525050565b600060208201905061282260008301846127fe565b92915050565b6000819050919050565b61283b81612828565b811461284657600080fd5b50565b60008135905061285881612832565b92915050565b60006020828403121561287457612873612763565b5b600061288284828501612849565b91505092915050565b61289481612828565b82525050565b600081519050919050565b600082825260208201905092915050565b60005b838110156128d45780820151818401526020810190506128b9565b60008484015250505050565b6000601f19601f8301169050919050565b60006128fc8261289a565b61290681856128a5565b93506129168185602086016128b6565b61291f816128e0565b840191505092915050565b600073ffffffffffffffffffffffffffffffffffffffff82169050919050565b60006129558261292a565b9050919050565b6129658161294a565b82525050565b600061010082019050612981600083018b61288b565b61298e602083018a61288b565b61299b604083018961288b565b6129a8606083018861288b565b81810360808301526129ba81876128f1565b90506129c960a083018661295c565b6129d660c08301856127fe565b6129e360e08301846127fe565b9998505050505050505050565b60006020820190508181036000830152612a0a81846128f1565b905092915050565b6000602082019050612a27600083018461295c565b92915050565b612a368161294a565b8114612a4157600080fd5b50565b600081359050612a5381612a2d565b92915050565b60008060408385031215612a7057612a6f612763565b5b6000612a7e85828601612a44565b9250506020612a8f85828601612849565b9150509250929050565b600080600060608486031215612ab257612ab1612763565b5b6000612ac086828701612a44565b9350506020612ad186828701612a44565b9250506040612ae286828701612849565b9150509250925092565b600060208284031215612b0257612b01612763565b5b6000612b1084828501612a44565b91505092915050565b6000602082019050612b2e600083018461288b565b92915050565b60008060408385031215612b4b57612b4a612763565b5b6000612b5985828601612849565b9250506020612b6a85828601612a44565b9150509250929050565b612b7d816127f2565b8114612b8857600080fd5b50565b600081359050612b9a81612b74565b92915050565b60008060408385031215612bb757612bb6612763565b5b6000612bc585828601612a44565b9250506020612bd685828601612b8b565b9150509250929050565b600080fd5b600080fd5b7f4e487b7100000000000000000000000000000000000000000000000000000000600052604160045260246000fd5b612c22826128e0565b810181811067ffffffffffffffff82111715612c4157612c40612bea565b5b80604052505050565b6000612c54612759565b9050612c608282612c19565b919050565b600067ffffffffffffffff821115612c8057612c7f612bea565b5b612c89826128e0565b9050602081019050919050565b82818337600083830152505050565b6000612cb8612cb384612c65565b612c4a565b905082815260208101848484011115612cd457612cd3612be5565b5b612cdf848285612c96565b509392505050565b600082601f830112612cfc57612cfb612be0565b5b8135612d0c848260208601612ca5565b91505092915050565b60008060008060808587031215612d2f57612d2e612763565b5b6000612d3d87828801612a44565b9450506020612d4e87828801612a44565b9350506040612d5f87828801612849565b925050606085013567ffffffffffffffff811115612d8057612d7f612768565b5b612d8c87828801612ce7565b91505092959194509250565b600067ffffffffffffffff821115612db357612db2612bea565b5b612dbc826128e0565b9050602081019050919050565b6000612ddc612dd784612d98565b612c4a565b905082815260208101848484011115612df857612df7612be5565b5b612e03848285612c96565b509392505050565b600082601f830112612e2057612e1f612be0565b5b8135612e30848260208601612dc9565b91505092915050565b600080600080600060a08688031215612e5557612e54612763565b5b6000612e6388828901612849565b9550506020612e7488828901612849565b9450506040612e8588828901612849565b935050606086013567ffffffffffffffff811115612ea657612ea5612768565b5b612eb288828901612e0b565b925050608086013567ffffffffffffffff811115612ed357612ed2612768565b5b612edf88828901612e0b565b9150509295509295909350565b612ef581612828565b82525050565b600082825260208201905092915050565b6000612f178261289a565b612f218185612efb565b9350612f318185602086016128b6565b612f3a816128e0565b840191505092915050565b612f4e8161294a565b82525050565b612f5d816127f2565b82525050565b600061010083016000830151612f7c6000860182612eec565b506020830151612f8f6020860182612eec565b506040830151612fa26040860182612eec565b506060830151612fb56060860182612eec565b5060808301518482036080860152612fcd8282612f0c565b91505060a0830151612fe260a0860182612f45565b5060c0830151612ff560c0860182612f54565b5060e083015161300860e0860182612f54565b508091505092915050565b6000602082019050818103600083015261302d8184612f63565b905092915050565b6000806040838503121561304c5761304b612763565b5b600061305a85828601612a44565b925050602061306b85828601612a44565b9150509250929050565b6000806040838503121561308c5761308b612763565b5b600061309a85828601612849565b92505060206130ab85828601612849565b9150509250929050565b7f4e487b7100000000000000000000000000000000000000000000000000000000600052602260045260246000fd5b600060028204905060018216806130fc57607f821691505b60208210810361310f5761310e6130b5565b5b50919050565b600060608201905061312a600083018661295c565b613137602083018561288b565b613144604083018461295c565b949350505050565b7f416c726561647920696e61637469766500000000000000000000000000000000600082015250565b60006131826010836128a5565b915061318d8261314c565b602082019050919050565b600060208201905081810360008301526131b181613175565b9050919050565b7f43616e6e6f74206275726e202d207374696c6c2076616c696400000000000000600082015250565b60006131ee6019836128a5565b91506131f9826131b8565b602082019050919050565b6000602082019050818103600083015261321d816131e1565b9050919050565b6000604082019050613239600083018561288b565b613246602083018461288b565b9392505050565b7f4e487b7100000000000000000000000000000000000000000000000000000000600052601160045260246000fd5b600061328782612828565b91507fffffffffffffffffffffffffffffffffffffffffffffffffffffffffffffffff82036132b9576132b861324d565b5b600182019050919050565b60008190508160005260206000209050919050565b60006020601f8301049050919050565b600082821b905092915050565b6000600883026133267fffffffffffffffffffffffffffffffffffffffffffffffffffffffffffffffff826132e9565b61333086836132e9565b95508019841693508086168417925050509392505050565b6000819050919050565b600061336d61336861336384612828565b613348565b612828565b9050919050565b6000819050919050565b61338783613352565b61339b61339382613374565b8484546132f6565b825550505050565b600090565b6133b06133a3565b6133bb81848461337e565b505050565b5b818110156133df576133d46000826133a8565b6001810190506133c1565b5050565b601f821115613424576133f5816132c4565b6133fe846132d9565b8101602085101561340d578190505b613421613419856132d9565b8301826133c0565b50505b505050565b600082821c905092915050565b600061344760001984600802613429565b1980831691505092915050565b60006134608383613436565b9150826002028217905092915050565b6134798261289a565b67ffffffffffffffff81111561349257613491612bea565b5b61349c82546130e4565b6134a78282856133e3565b600060209050601f8311600181146134da57600084156134c8578287015190505b6134d28582613454565b86555061353a565b601f1984166134e8866132c4565b60005b82811015613510578489015182556001820191506020850194506020810190506134eb565b8683101561352d5784890151613529601f891682613436565b8355505b6001600288020188555050505b505050505050565b6000604082019050613557600083018561288b565b613564602083018461295c565b9392505050565b600081905092915050565b60006135818261289a565b61358b818561356b565b935061359b8185602086016128b6565b80840191505092915050565b60006135b38285613576565b91506135bf8284613576565b91508190509392505050565b7f546f6b656e206e6f7420666f756e640000000000000000000000000000000000600082015250565b6000613601600f836128a5565b915061360c826135cb565b602082019050919050565b60006020820190508181036000830152613630816135f4565b9050919050565b7f546f6b656e20696e616374697665000000000000000000000000000000000000600082015250565b600061366d600e836128a5565b915061367882613637565b602082019050919050565b6000602082019050818103600083015261369c81613660565b9050919050565b7f4372656469742065787069726564000000000000000000000000000000000000600082015250565b60006136d9600e836128a5565b91506136e4826136a3565b602082019050919050565b60006020820190508181036000830152613708816136cc565b9050919050565b7f496e73756666696369656e742063726564697473000000000000000000000000600082015250565b60006137456014836128a5565b91506137508261370f565b602082019050919050565b6000602082019050818103600083015261377481613738565b9050919050565b600061378682612828565b915061379183612828565b925082820261379f81612828565b915082820484148315176137b6576137b561324d565b5b5092915050565b7f496e636f7272656374207061796d656e74000000000000000000000000000000600082015250565b60006137f36011836128a5565b91506137fe826137bd565b602082019050919050565b60006020820190508181036000830152613822816137e6565b9050919050565b600061383482612828565b915061383f83612828565b92508282039050818111156138575761385661324d565b5b92915050565b600061386882612828565b915061387383612828565b925082820190508082111561388b5761388a61324d565b5b92915050565b60006080820190506138a6600083018761288b565b6138b3602083018661295c565b6138c0604083018561288b565b6138cd606083018461288b565b95945050505050565b7f4e6f7420616e206f776e65720000000000000000000000000000000000000000600082015250565b600061390c600c836128a5565b9150613917826138d6565b602082019050919050565b6000602082019050818103600083015261393b816138ff565b9050919050565b6000606082019050613957600083018661288b565b613964602083018561295c565b613971604083018461288b565b949350505050565b600081519050919050565b600082825260208201905092915050565b60006139a082613979565b6139aa8185613984565b93506139ba8185602086016128b6565b6139c3816128e0565b840191505092915050565b60006080820190506139e3600083018761295c565b6139f0602083018661295c565b6139fd604083018561288b565b8181036060830152613a0f8184613995565b905095945050505050565b600081519050613a2981612799565b92915050565b600060208284031215613a4557613a44612763565b5b6000613a5384828501613a1a565b91505092915050565b6000604082019050613a71600083018561295c565b613a7e602083018461288b565b9392505050565b7f4e487b7100000000000000000000000000000000000000000000000000000000600052601260045260246000fdfea2646970667358221220f969f883a700cb2443636efdc002138d8497aaf82e5b506e58f4c32f7a1c004d64736f6c63430008140033",
  "linkReferences": {},
  "deployedLinkReferences": {}
}